:100000000C9478000C94A0000C94A0000C94A00018
:100010000C94A0000C9458070C94A0000C94A00021
:100020000C94A0000C94A0000C94A0000C94350F2C
:100030000C94A0000C94A0000C94A0000C94A000C0
:100040000C94041F0C94A0000C946D220C949F221D
:100050000C94A0000C94A0000C94A0000C94A000A0
:100060000C94EE120C94A0008A01FA019501FA0199
:100070009A01A101FA01C501FA01DD01FA01B301FA
:100080001D02220227022C02310236023B0200002E
:100090000008000201000003040700000000000047
:1000A0000000010204081020408001020408102012
:1000B00001020408102004040404040404040202DD
:1000C00002020202030303030303000000002300F3
:1000D0002600290000000000250028002B00000059
:1000E0000000240027002A007E070C12CF22DE0722
:1000F00011241FBECFEFD8E0DEBFCDBF11E0A0E0DE
:10010000B1E0E6E7FFE402C005900D92A23BB10723
:10011000D9F726E0A2EBB1E001C01D92AD3CB207D9
:10012000E1F710E0CEEED0E004C02297FE010E947D
:100130002626C83ED107C9F70E9413230C94AE2788
:100140000C940000DC01ED91FC910190F081E02D18
:1001500009946FEF70E086E296E00E94A20065E5E8
:1001600070E086E296E00E94A20086E296E00C949F
:1001700060230F93CF9360E08EE394E00E942514F8
:100180008EE394E00E943314882309F495C06AE05A
:1001900070E080E090E00E947D1F8EE394E00E947A
:1001A0003314882309F488C08EE394E00E9433144A
:1001B0008111FACF85E194E00E94831C882329F005
:1001C00060E085E194E00E94F91B8091D2018F5F8D
:1001D000C3E06C2F0E94D7259093D201911123C0C8
:1001E00000E02FEF40E060E085E194E00E94481CD1
:1001F00085E194E00E94AA1C64EF71E080E090E049
:100200000E947D1F20E040E060E085E194E00E94D4
:10021000481C85E194E00E94AA1C8EEF80935E0149
:100220001092DB0149C0913021F50FEF20E04FEF34
:1002300060E085E194E00E94481C85E194E00E9422
:10024000AA1C64EF71E080E090E00E947D1F00E056
:1002500020E040E060E085E194E00E94481C85E1F8
:1002600094E00E94AA1C81E180935E01C093DB01AF
:1002700023C000E02FEF4FEF60E085E194E00E94A3
:10028000481C85E194E00E94AA1C64EF71E080E0C4
:1002900090E00E947D1F20E040E060E085E194E076
:1002A0000E94481C85E194E00E94AA1C81E0809392
:1002B0005E0182E08093DB01CF910F91089583EE80
:1002C00093E00E94D317833071F48FEF80935E0127
:1002D0001092D2011092E3011092E2011092E1011A
:1002E0001092E001089580915E018E5F823008F0E7
:1002F000D0C083EE93E00E94D3178093C201482FB1
:1003000050E04C30510508F075C0FA01EC5CFF4F2D
:100310000C9424261092E3011092E2011092E10164
:100320001092E0011092D101089581E180935E0165
:1003300083E004C081E080935E0182E08093DB0172
:10034000089580915C0129E1829FC0011124805BA6
:100350009F4F9093E3018093E2019093E10180939A
:10036000E00181E041C020915C0137EE3203C00121
:100370001124805591099093E3018093E2019093B9
:10038000E1018093E00182E02FC040915C0157EED3
:10039000540390011124205531093093E301209337
:1003A000E20129E1429FC0011124805B9F4F90939D
:1003B000E1018093E00183E017C040915C0159E1C5
:1003C000459F90011124205B3F4F3093E301209320
:1003D000E20127EE2403C001112480559109909376
:1003E000E1018093E00184E08093D1018FEF80935D
:1003F0005E0108951092E3011092E2011092E10172
:100400001092E0011092D1019FEF90935E018D3028
:1004100008F43FC060E082E994E00E943C1B8091B8
:10042000C2018093C10190E0FC013D97E730F105E6
:1004300050F5E05CFF4F0C94242681E080935C0132
:1004400062E01DC082E080935C0163E018C083E03D
:1004500080935C0164E013C084E080935C0165E0FC
:100460000EC085E080935C0166E009C086E0809361
:100470005C0167E004C087E080935C0168E082E98A
:1004800094E00E94551B83EE93E00E94D3178111E4
:10049000FACF0895CF92DF92EF92FF92CF93DF933E
:1004A000682F81EE94E00E94331960E081EE94E0C1
:1004B0000E943E19C82FD0E08091DA0164E670E016
:1004C000681B710987FD7395882777FD8095982FA4
:1004D0000E94B02420E030E048E453E40E94152458
:1004E00020E030E040E85FE30E94AD236B017C0137
:1004F000209751F58091B601813099F420E030E0E9
:1005000048E453ECC701B6010E9464250E947D2493
:100510007093DF016093DE0120E030E048E453E4B3
:10052000B1C020E030E048E453E4C701B6010E94C6
:1005300064250E947D247093DF016093DE0120E03A
:1005400030E048E453EC9EC0C130D10521F420E0F6
:1005500030E0A9011DC0C230D10599F420E030E09F
:1005600048E453E40E9464250E947D247093DF01D7
:100570006093DE017093DD016093DC011092B6019F
:1005800097C0C330D105F1F420E030E048EC52E4EC
:10059000C701B6010E9464250E947D247093DF018B
:1005A0006093DE0120E030E048E453E4C701B60187
:1005B0000E9464250E947D247093DD016093DC011C
:1005C00081E034C0C430D10581F420E030E048E45B
:1005D00053E40E9464250E947D247093DF016093A0
:1005E000DE0120E030E0A90116C0C530D10519F1C7
:1005F000C630D105F1F420E030E048E453E40E9435
:1006000064250E947D247093DF016093DE0120E069
:1006100030E048EC52E4C701B6010E9464250E9414
:100620007D247093DD016093DC0182E08093B6014C
:100630003FC0279771F58091B601813091F420E099
:1006400030E0A901C701B6010E9464250E947D2403
:100650007093DF016093DE0120E030E046E153E477
:1006600011C020E030E046E153E4C701B6010E942A
:1006700064250E947D247093DF016093DE0120E0F9
:1006800030E0A901C701B6010E9464250E947D24C3
:100690000BC020E030E0A9010E9464250E947D2467
:1006A0007093DF016093DE017093DD016093DC01E4
:1006B000DF91CF91FF90EF90DF90CF9008950F934F
:1006C0001F93CF93C82F90910A01923009F444C030
:1006D000933009F469C0913009F093C00E944E1F15
:1006E0000091B2011091B3012091B4013091B50194
:1006F000601B710B820B930B693E73408105910562
:1007000010F16C2F8CEF94E00E942C1E8CEF94E083
:100710000E94371EBC0180E090E00E94AE2420E0E1
:1007200030E040EF51E40E94112487FF6AC00E942C
:100730004E1F6093B2017093B3018093B401909304
:10074000B50182E05BC01092DF011092DE011092D1
:10075000DD011092DC015FC01092DF011092DE011A
:100760001092DD011092DC010E944E1F0091B20137
:100770001091B3012091B4013091B501601B710B50
:10078000820B930B693E73408105910508F443C0C9
:100790000E944E1F6093B2017093B3018093B40125
:1007A0009093B50183E02AC08AE69FEF9093DF0122
:1007B0008093DE0186E990E09093DD018093DC0177
:1007C0000E944E1F0091B2011091B3012091B4011B
:1007D0003091B501601B710B820B930B693E734026
:1007E00081059105C0F00E944E1F6093B201709385
:1007F000B3018093B4019093B50181E080930A0125
:100800000AC088EC90E09093DF018093DE01909322
:10081000DD018093DC01CF911F910F910895CF925C
:10082000DF92EF92FF9227E73EEB4FE75FE36091A5
:10083000D6017091D7018091D8019091D9010E9481
:1008400064256B017C0185E10E94EB1FBC018827B8
:1008500077FD8095982F0E94B0242FE632E143E87F
:100860005AE30E9464259B01AC01C701B6010E94B6
:10087000AD236B017C016093D6017093D701809307
:10088000D8019093D90120E030E841E554E40E947A
:100890006025181624F484E68093DA0152C020E023
:1008A00030E048E354E4C701B6010E946025181601
:1008B000FCF420E030E841E554E4C701B6010E94B1
:1008C00011241816ACF020E030E048E354E4C701EE
:1008D000B6010E94AC232EEA37E441E65FE30E94B2
:1008E000642520E030E040E251E40E94AD2322C0C4
:1008F00020E030E049E254E4C701B6010E946025DF
:100900001816ECF420E030E048E354E4C701B601E7
:100910000E94112418169CF020E030E049E254E4D3
:10092000C701B6010E94AC2320E030E040EC50E467
:100930000E9415240E947D246093DA0102C0109267
:10094000DA018091DA0190915D0198171CF490937F
:10095000DA0102C080935D010E944E1FC090F40135
:10096000D090F501E090F601F090F70120E2C20E80
:100970002EE4D21EE11CF11CC616D706E806F906C5
:10098000B8F40E944E1F6093F4017093F5018093B8
:10099000F6019093F7018091DA018A304CF460E01F
:1009A00082E994E0FF90EF90DF90CF900C943C1B95
:1009B000FF90EF90DF90CF900895CF92DF92EF926B
:1009C000FF920F93CF93DF938EE195E00E948919F8
:1009D000409161015091620160E08EE195E00E94DA
:1009E000D31940915F015091600166E08EE195E07E
:1009F0000E94D31960E085E194E00E94F91B00E0B9
:100A000020E04CE361E085E194E00E94481C85E130
:100A100094E00E94AA1C64E670E080E090E00E94EE
:100A20007D1F20E04CE362E085E194E00E94481CD9
:100A300085E194E00E94AA1C64E670E080E090E00A
:100A40000E947D1F20E04CE365E085E194E00E9478
:100A5000481C85E194E00E94AA1C64E670E080E0F6
:100A600090E00E947D1F20E04CE364E085E194E08B
:100A70000E94481C85E194E00E94AA1C64E670E094
:100A800080E090E00E947D1F20E04CE363E085E180
:100A900094E00E94481C85E194E00E94AA1C64E650
:100AA00070E080E090E00E947D1F2CE340E060E079
:100AB00085E194E00E94481C85E194E00E94AA1C14
:100AC00064E670E080E090E00E947D1F0CE320E08F
:100AD00040E060E085E194E00E94481C85E194E0FC
:100AE0000E94AA1C64E670E080E090E00E947D1FF6
:100AF00000E020E040E060E085E194E00E94481CD6
:100B000085E194E00E94AA1C41E060E08AE493E061
:100B10000E94451D42E060E089E293E00E94451D8D
:100B200065E086EC93E00E946E1466E089EA93E04B
:100B30000E946E1460E08EE394E00E94251464EF3E
:100B400071E080E090E00E947D1F60E082E994E027
:100B50000E943C1B64E08EE195E00E947119892B94
:100B600029F060E182E994E00E94551B60E083EE89
:100B700093E00E94471660E08AEA94E00E9412190E
:100B800060E086E794E00E940E1E85E10E94EB1F64
:100B9000BC01882777FD8095982F0E94B024609330
:100BA000D6017093D7018093D8019093D901C8EEF4
:100BB000D3E024EA30E74DE75FE36091D60170911E
:100BC000D7018091D8019091D9010E9464256B01D1
:100BD0007C0185E10E94EB1FBC01882777FD809591
:100BE000982F0E94B0242AE037ED43E25CE30E9494
:100BF00064259B01AC01C701B6010E94AD236B01C6
:100C00007C016093D6017093D7018093D8019093B3
:100C1000D901219771F620E030E841E554E40E94C3
:100C20006025181624F484E68093DA0152C020E08F
:100C300030E048E354E4C701B6010E94602518166D
:100C4000FCF420E030E841E554E4C701B6010E941D
:100C500011241816ACF020E030E048E354E4C7015A
:100C6000B6010E94AC232EEA37E441E65FE30E941E
:100C7000642520E030E040E251E40E94AD2322C030
:100C800020E030E049E254E4C701B6010E9460254B
:100C90001816ECF420E030E048E354E4C701B60154
:100CA0000E94112418169CF020E030E049E254E440
:100CB000C701B6010E94AC2320E030E040EC50E4D4
:100CC0000E9415240E947D246093DA0102C01092D4
:100CD000DA018091DA0180935D010E944E1F6093DA
:100CE000FC017093FD018093FE019093FF010E942F
:100CF0004E1FC090FC01D090FD01E090FE01F090ED
:100D0000FF016C197D098E099F09643F71408105BF
:100D1000910548F48EE394E00E943314882339F35C
:100D200010925E01E4CF80915E018111A5C000E0C8
:100D300020E040E060E085E194E00E94481C85E10D
:100D400094E00E94AA1C20E04FEF60E085E194E06F
:100D50000E94481C85E194E00E94AA1C64EF71E0A7
:100D600080E090E00E947D1F2FEF40E060E085E191
:100D700094E00E94481C85E194E00E94AA1C64EF64
:100D800071E080E090E00E947D1F0FEF20E040E0E6
:100D900060E085E194E00E94481C85E194E00E94B7
:100DA000AA1C64EF71E080E090E00E947D1F2FEFAD
:100DB0004FEF60E085E194E00E94481C85E194E0FB
:100DC0000E94AA1C64EF71E080E090E00E947D1F09
:100DD00000E020E040E060E085E194E00E94481CF3
:100DE00085E194E00E94AA1C61E08EEC92E00E94F2
:100DF0005A1844E061E070E08EEC92E00E947518B1
:100E000064E670E080E090E00E947D1F62E08EEC7E
:100E100092E00E945A1844E062E070E08EEC92E0AA
:100E20000E94751864E670E080E090E00E947D1FEB
:100E300063E08EEC92E00E945A1844E063E070E0B8
:100E40008EEC92E00E94751864E670E080E090E01D
:100E50000E947D1F64E08EEC92E00E945A1844E0EC
:100E600064E070E08EEC92E00E94751868EE73E02A
:100E700080E090E00E947D1F61E08EEC92E00E9495
:100E80005A1844E06BE071E08EEC92E00E949218F8
:100E900026E040E052EC61E070E086E296E0DF910F
:100EA000CF910F91FF90EF90DF90CF900C940B2299
:100EB0001F920F920FB60F9211242F933F934F93CF
:100EC0005F936F937F938F939F93AF93BF93EF93B2
:100ED000FF9383EE93E00E946516FF91EF91BF911F
:100EE000AF919F918F917F916F915F914F913F91C2
:100EF0002F910F900FBE0F901F9018958EE195E0E7
:100F00000E946C198CEF94E00E94221E81EE94E006
:100F10000E94291986EC94E00E9473158AEA94E0F5
:100F20000E94081982E994E00E94321B86E794E04F
:100F30000E94041E8AE594E00E943F148EE394E030
:100F40000E941B1485E194E00E94C11B83EE93E094
:100F50000E94C61586EC93E00E94641489EA93E02F
:100F60000E9464148CE893E00E9464148BE693E082
:100F70000E94341D8AE493E00E94341D89E293E0CC
:100F80000E94341D8EEC92E00E94491883EB92E09F
:100F90000E94D71C88E992E00E94F11489E792E050
:100FA0000E94851B8EE592E00E941A1583E492E070
:100FB0000E941A1588E292E00C94281B85E194E0C7
:100FC0000C94CB1C0F931F93CF93DF93C62F072F47
:100FD000182FD92F62E070E086E296E00E94A2000E
:100FE0004C2F502F612F7D2F4093240250932502C8
:100FF00060932602709327026C2F86E296E00E948F
:10100000A6216091250286E296E00E94A6216091C9
:10101000260286E296E00E94A6216091270286E2DF
:1010200096E0DF91CF911F910F910C94A621CF9361
:10103000DF93D82FC92F63E070E086E296E00E942C
:10104000A2006D2F86E296E00E94A6216C2F86E218
:1010500096E0DF91CF910C94A621CF93DF93C82F18
:10106000813009F44FC16FEF70E086E296E00E9494
:10107000A20065E570E086E296E00E94A200609121
:10108000070286E296E00E94A621C11137C063E004
:1010900070E086E296E00E94A2006091610186E223
:1010A00096E00E94A621609162011EC0C43099F5AD
:1010B00060910A0289E792E00E948F1B89E792E023
:1010C0000E949C1B9093BC018093BB0163E070E085
:1010D00086E296E00E94A2006091BB0186E296E063
:1010E0000E94A6216091BC0186E296E00E94A621A2
:1010F00086E296E0DF91CF910C946023C330B1F685
:1011000060910A028AEA94E00E9412198AEA94E045
:101110000E941E19E8C0C73059F460910A0286E7A0
:1011200094E00E940E1E86E794E00E94181EDBC029
:10113000C43169F460910A028AE594E00E9449147E
:1011400060910B028AE594E00E945214CCC0CF302B
:1011500061F461E070E086E296E00E94A200609196
:10116000DA01772767FD7095AAC0C03159F50E9452
:101170004E1F6093EC017093ED018093EE0190930C
:10118000EF0183EE93E00E94461860910A028617F1
:1011900021F083EE93E00E94471661E070E086E262
:1011A00096E00E94A20080910602843031F483EE22
:1011B00093E00E94D317682F97CF83EE93E00E94AD
:1011C000D3175CC0C131C9F460910A0281EE94E08A
:1011D0000E94331960910B0281EE94E0663050F466
:1011E0000E943E19C82F61E070E086E296E00E94FE
:1011F000A20086C00E94441913C0C831A1F46091B6
:101200000A0286EC94E00E947D1560910B0286EC48
:1012100094E0663018F40E94881565C00E94A515F8
:101220000E94170865CFCD3069F460910A0288E901
:1012300092E00E94FB1460910B0288E992E00E9408
:10124000061582C0C231F9F40E944E1F6093E80176
:101250007093E9018093EA019093EB0160910A0297
:101260008EE394E00E94251461E070E086E296E04F
:101270000E94A2008EE394E00E94331461E070E0CB
:1012800090910B0218C0C531F9F460910A0283E411
:1012900092E00E94241561E070E086E296E00E94F0
:1012A000A20060910B0283E492E00E942F1561E09E
:1012B00070E090910C02891711F060E070E086E216
:1012C00096E00E94A20014CFC33109F011CF6091C3
:1012D0000A028EE592E00E94241560910B028EE5D1
:1012E00092E00E945015D82FC92F63E070E086E28B
:1012F00096E00E94A2006D2F86E296E00E94A62151
:101300006C2FF2CE60910A028CEF94E00E942C1EAA
:101310008CEF94E00E94371EEC016FEF70E086E2E4
:1013200096E00E94A20065E570E086E296E00E94E9
:10133000A2006091070286E296E00E94A621BE010B
:1013400080E090E00E94AE240E94E207D1CE0F938D
:10135000CF93DF938830F9F485E194E00E94831CF9
:1013600060910A02861721F085E194E00E94F91B42
:1013700000910F0220910E0240910D0260910C022B
:1013800085E194E00E94481C85E194E0DF91CF91D3
:101390000F910C94AA1C8A3009F077C060910A0260
:1013A000611122C020910E0230E0322F222780915D
:1013B0000D02282B80910C0290E0982F88274091F5
:1013C0000B02842B8F3F910519F014F08FEF90E002
:1013D00081304FEF940714F481E09FEF9093E70181
:1013E0008093E601C90125C06530C9F480910C02E3
:1013F00090E0982F882720910B02822B8F3F910538
:1014000019F014F08FEF90E081304FEF940714F44F
:1014100081E09FEF9093E7018093E601C5C16630BC
:10142000C9F480910C0290E0982F882720910B023C
:10143000822B8F3F910519F014F08FEF90E08130EF
:101440002FEF920714F481E09FEF9093E5018093D2
:10145000E401AAC18CE893E00E946E1440910E0250
:1014600050E0542F442780910D02482B60910C02CC
:1014700070E0762F662780910B02682B8CE893E052
:10148000DF91CF910F910C94BC14853189F4609158
:101490000A0283E492E00E94241540910C026091BC
:1014A0000B0283E492E0DF91CF910F910C943515FC
:1014B000833189F460910A028EE592E00E9424153E
:1014C00040910C0260910B028EE592E0DF91CF918A
:1014D0000F910C9458158B3099F560910A026111A7
:1014E0001EC08EE195E00E946D19E0910B02803DD7
:1014F000974038F4F0E0ED52FE4F80910C0280836B
:1015000053C160910C02E13019F48AE493E002C007
:1015100089E293E0DF91CF910F910C94741D40917B
:101520000B028BE693E00E94451D60910C028BE656
:1015300093E00E94741D64E670E080E090E04FC08C
:101540008E3079F460910A0282E994E00E943C1B9B
:1015500060910B0282E994E0DF91CF910F910C949E
:10156000551B893291F460910A028EEC92E00E9440
:101570005A184091060244506BE072E08EEC92E003
:10158000DF91CF910F910C94CC18893069F560915F
:101590000A0286E296E00E94A62160910A0283EB8D
:1015A00092E00E94E11C60910C0270E0762F6627A9
:1015B00080910B02682B7093BE016093BD01882758
:1015C00077FD8095982F0E94B024AB01BC0183EB7E
:1015D00092E00E94FC1C6AE070E080E090E0DF9105
:1015E000CF910F910C947D1F813209F4DDC08138B9
:1015F00059F440910B0250E064E08EE195E0DF91F8
:10160000CF910F910C94D3198131C9F480910C02C0
:10161000C0910D02D0E0DC2FCC27C80FD11D609106
:101620000A0281EE94E00E943319AE0160910B0230
:1016300081EE94E0DF91CF910F910C944D19883198
:10164000C9F480910C02C0910D02D0E0DC2FCC27B0
:10165000C80FD11D60910A0286EC94E00E947D15AE
:10166000AE0160910B0286EC94E0DF91CF910F9177
:101670000C94AB15803809F097C020910D0230E032
:10168000322F222780910C02282B80910B0290E0B0
:10169000982F882740910A02842B8F3F910519F0DB
:1016A00014F08FEF90E081304FEF940714F481E055
:1016B0009FEF9093E7018093E601C9012F3F310529
:1016C00019F014F08FEF90E081302FEF920714F4AF
:1016D00081E09FEF9093E5018093E4018EE195E036
:1016E0000E946D19803D974048F4809112028093CA
:1016F000D401809113028093D5010CC06091120235
:101700008AE493E00E94741D6091130289E293E0E1
:101710000E94741D4091100243FF04C000E02FEFAF
:101720004FEF08C0042F04700195242F21702195DC
:101730004270419560E085E194E00E94481C85E19B
:1017400094E00E94AA1C9091BA018091100298170F
:10175000E9F060E082E994E00E943C1B8091100275
:101760008093BA01803259F020F4803179F462E03C
:1017700009C0803431F0803849F465E003C063E08B
:1017800001C064E082E994E00E94551B8091100240
:10179000803251F444E060E270E08EEC92E0DF9140
:1017A000CF910F910C947518DF91CF910F910895FF
:1017B00080910802813019F138F0823009F446C076
:1017C000843009F453C0089580910B02813049F4AC
:1017D0008091090280935E0180910A028093DB016F
:1017E00008958EEF80935E011092E7011092E6015A
:1017F0001092E5011092E4011092DB0108958091AE
:101800005E0192E0980F923050F460910A0280914C
:1018100009020E942D088EEF80935E0108958131A8
:1018200029F480910902813139F40DC08130B1F57C
:1018300080910902813039F08F3081F560910A0280
:101840008FE00C942D0860910A02FBCF80915E011D
:101850008E5F823018F50E94A9008EEF80935E01A2
:1018600064E072E0809109020C94A7091092E701EC
:101870001092E6011092E5011092E4011092DF014E
:101880001092DE011092DD011092DC011092E30152
:101890001092E2011092E1011092E00108950F937D
:1018A0001F93CF93DF93C2E0DFEF15E501E086E2FF
:1018B00096E00E942821892BE9F186E296E00E94B9
:1018C00041219091B901911119C08535A1F49091F0
:1018D000B8019F3F81F4C093B701E4E0F2E01192B8
:1018E00082E0E432F807D9F7D0930402109305029E
:1018F0000093B9010DC08093B8010AC09091B7015F
:10190000E92FF0E0EC5FFD4F80839F5F9093B7017C
:101910008091060290E002962091B70130E0821794
:1019200093072CF61092B9011092D2010E94D80BA5
:101930001092B701DF91CF911F910F9108950F93EE
:101940001F930E945A1F0091FC011091FD012091EC
:10195000FE013091FF01601B710B820B930B6093B2
:1019600000027093010280930202909303020E948E
:101970005A1F6093FC017093FD018093FE019093C8
:10198000FF0180915E018111DEC083EE93E00E9431
:101990009A1783EE93E00E94D3178093C20160915F
:1019A000C3018AE493E00E94741D6091C30189E23F
:1019B00093E00E94741D6091BD017091BE01882763
:1019C00077FD8095982F0E94B024AB01BC0183EB7A
:1019D00092E00E94FC1C0E944E1F0091CC011091CD
:1019E000CD012091CE013091CF01601B710B820B94
:1019F000930B673971058105910508F44AC00E946F
:101A00004E1F6093CC017093CD018093CE019093D3
:101A1000CF010E940F0461E08EEC92E00E945A1800
:101A20006091DA01772767FD709544E08EEC92E0D3
:101A30000E94751862E08EEC92E00E945A188AEAC1
:101A400094E00E941E1944E0BC018EEC92E00E94DA
:101A5000751863E08EEC92E00E945A1886E794E0D5
:101A60000E94181E44E0BC018EEC92E00E947518A2
:101A700064E08EEC92E00E945A186091C20170E01E
:101A800044E08EEC92E00E94751886E296E00E9497
:101A900060230E944E1F0091C8011091C90120913E
:101AA000CA013091CB01601B710B820B930B693E15
:101AB00073408105910508F4D5C10E944E1F6093C3
:101AC000C8017093C9018093CA019093CB018091A2
:101AD000BF019091C0018F3F910529F41092C00180
:101AE0001092BF0106C08FEF90E09093C0018093E9
:101AF000BF016091BF017091C00186EC93E00E942C
:101B000086146091BF017091C00189EA93E00E9440
:101B100086148091C3018E3111F486E901C08EE1F3
:101B20008093C30180915B01853110F082E001C098
:101B30008F5F80935B0160915B0182E994E01F916C
:101B40000F910C94551B0E944F0C8EE195E00E9462
:101B50006D19803D974078F50E944E1F0091F0016D
:101B60001091F1012091F2013091F3010C5E1F4FB1
:101B70002F4F3F4F0617170728073907E0F40E9439
:101B80004E1F6093F0017093F1018093F2019093E6
:101B9000F3016091D4018AE493E00E94741D62E035
:101BA00070E080E090E00E947D1F6091D50189E2A5
:101BB00093E00E94741D83EE93E00E949A170E94A6
:101BC0004E1F0091EC011091ED012091EE0130913A
:101BD000EF01601B710B820B930B693E7340810513
:101BE000910510F00E945F010E944E1F0091E801D4
:101BF0001091E9012091EA013091EB01601B710B1A
:101C0000820B930B613D77408105910510F00E9496
:101C1000B90080915E01813129F48091DB010E943D
:101C20004A0206C0813021F48091DB010E945F03EB
:101C30000E944E1F0091F8011091F9012091FA01C4
:101C40003091FB010C591F4F2F4F3F4F06171707BD
:101C50002807390760F40E944E1F6093F8017093C3
:101C6000F9018093FA019093FB010E940F040E94F6
:101C70004E1F0091C8011091C9012091CA013091F5
:101C8000CB010C5E1F4F2F4F3F4F0617170728073A
:101C9000390708F046C00E944E1F6093C801709338
:101CA000C9018093CA019093CB0180915E018F3F5F
:101CB00069F46091E2017091E30186EC93E00E9487
:101CC00086146091E0017091E10127C08E3F69F4B4
:101CD0006091E6017091E70186EC93E00E94861422
:101CE0006091E4017091E50118C08F7E813069F444
:101CF0006091DE017091DF0186EC93E00E94861412
:101D00006091DC017091DD0108C060E070E086EC5C
:101D100093E00E94861460E070E089EA93E00E94FC
:101D200086140E944E1F0091C4011091C50120919C
:101D3000C6013091C7010C5E1F4F2F4F3F4F061752
:101D400017072807390708F08DC00E944E1F6093BF
:101D5000C4017093C5018093C6019093C70190910F
:101D6000D1018091D001981709F47CC000E02CE3E8
:101D700040E060E085E194E00E94481C85E194E049
:101D80000E94AA1C65E070E080E090E00E947D1F48
:101D900020E04CE363E085E194E00E94481C85E18B
:101DA00094E00E94AA1C65E070E080E090E00E9450
:101DB0007D1F8091D1018093D0018230F1F048F4F1
:101DC0008823D9F18130C9F500E020E042E361E0E9
:101DD00018C0833011F1843081F500E020E042E347
:101DE00062E085E194E00E94481C85E194E00E9455
:101DF000AA1C44E06BE471E02FC000E020E042E365
:101E000065E085E194E00E94481C85E194E00E9431
:101E1000AA1C44E06BE171E01FC000E020E042E357
:101E200064E085E194E00E94481C85E194E00E9412
:101E3000AA1C44E06BE371E00FC000E020E040E04A
:101E400060E085E194E00E94481C85E194E00E94F6
:101E5000AA1C44E06BE071E08EEC92E01F910F91C0
:101E60000C9492181F910F9108951F920F920FB624
:101E70000F9211242F933F934F935F936F937F9310
:101E80008F939F93AF93BF93EF93FF93809134050C
:101E900087FF05C010928500109284001AC020911F
:101EA0003405332727FD30958091330590E02817BE
:101EB00039077CF480913405992787FD9095FC01C2
:101EC000EE0FFF1FE80FF91FEB5CFA4F808186FDD4
:101ED00015C0809134058F5F8093340520913405BF
:101EE000332727FD30958091330590E02817390777
:101EF000BCF4809134058C305CF112C080913405C3
:101F0000992787FD9095FC01EE0FFF1FE80FF91F41
:101F1000EB5CFA4F808160E08F730E94C920D9CFBB
:101F20008091840090918500049680349C4918F437
:101F300080E49CE905C0809184009091850004961E
:101F400090938900809388008FEF8093340538C088
:101F5000209184003091850080913405992787FD78
:101F60009095FC01EE0FFF1FE80FF91FEB5CFA4F95
:101F700081819281820F931F9093890080938800C2
:101F800080913405992787FD9095FC01EE0FFF1F86
:101F9000E80FF91FEB5CFA4F808186FF11C080913A
:101FA0003405992787FD9095FC01EE0FFF1FE80F80
:101FB000F91FEB5CFA4F808161E08F730E94C920AA
:101FC000FF91EF91BF91AF919F918F917F916F9111
:101FD0005F914F913F912F910F900FBE0F901F90E7
:101FE0001895209133052C30A0F431E0320F309356
:101FF0003305FC012083822F90E0FC01EE0FFF1FD0
:10200000E80FF91FEB5CFA4F88EB9BE0928381832A
:1020100008952FEFFC0120830895DF92EF92FF9245
:102020000F931F93CF93DF93EC01D62E7A01890192
:1020300088818C3008F066C061E08D2D0E94902070
:102040008881A82FB0E0FD01EE0FFF1FEA0FFB1FF4
:10205000EB5CFA4F2D2D2F739081907C922B908307
:1020600060E272E06E197F0977FF02C06D5F7F4FFB
:102070007595679575956795698340E659E0401BAE
:10208000510B57FF02C04D5F5F4F559547955595D2
:1020900047954A836CE00E94D7259CE0899FB00158
:1020A000112420E030E0A901460F571FFA01EE0F7E
:1020B000FF1FE40FF51FEB5CFA4F908196FD16C0F1
:1020C0002F5F3F4F2C30310571F781110FC01092F7
:1020D000800082E08093810010928500109284003D
:1020E000B19A80916F00826080936F00888190E048
:1020F000FC01EE0FFF1FE80FF91FEB5CFA4F808128
:10210000806480838881DF91CF911F910F91FF9030
:10211000EF90DF90089520E639E040E252E00C9421
:102120000D10FC0180818C3070F5918128E830E041
:10213000291B310997FD3395220F331F220F331FBF
:10214000621773077CF0928128E532E0291B310980
:1021500097FD3395220F331F220F331F621773072A
:102160000CF49B0122503109220F331F4FB7F89412
:1021700090E0FC01EE0FFF1FE80FF91FEB5CFA4F38
:10218000328321834FBF08954F925F926F927F9267
:10219000AF92BF92CF92DF92EF92FF920F931F9375
:1021A000CF93DF93EC01603282E078070CF040C0FF
:1021B00077FD06C0653B71052CF064EB70E002C052
:1021C00060E070E0898128E830E0281B310987FD54
:1021D0003395220F331F220F331F5901CC24B7FC34
:1021E000C094DC2C882777FD8095982F2A8148E5BC
:1021F00052E0421B510927FD5395440F551F440FD0
:10220000551F2A01662457FC6094762C7F926F92AA
:102210005F924F9214EBE12EF12C00E010E020E0F1
:1022200030E0A9010E9464230F900F900F900F904F
:10223000CE01DF91CF911F910F91FF90EF90DF9032
:10224000CF90BF90AF907F906F905F904F900C9425
:1022500091108091890590E020918A05821B910957
:10226000089520918A0580918905281750F4E22F5E
:10227000F0E0E557FA4F808190E02F5F20938A05C8
:1022800008958FEF9FEF0895E0918A058091890569
:10229000E81730F4F0E0E557FA4F808190E00895B8
:1022A0008FEF9FEF08950895CF92DF92EF92FF9204
:1022B0000F931F93CF93DF937C01CB018A01209171
:1022C0006505222389F0EB016B01C40ED51ECC15E8
:1022D000DD0569F06991D701ED91FC910190F081E4
:1022E000E02DC7010995F3CF642F0E94C512C801E4
:1022F000DF91CF911F910F91FF90EF90DF90CF90E2
:102300000895CF93DF931F92CDB7DEB769832091F5
:1023100065052223D1F020916605203240F021E0AE
:1023200030E0FC013383228380E090E015C080918F
:102330006705E82FF0E0E859FA4F998190838F5FA5
:10234000809367058093660505C061E0CE01019624
:102350000E94C51281E090E00F90DF91CF91089527
:10236000FC011382128248EE53E060E070E0448387
:1023700055836683778388E691E09183808308950F
:1023800010928A05109289051092670510926605D1
:102390000C9410129A01AB0160E074E284EF90E0BB
:1023A0000E94E3252051310941095109569547956D
:1023B000379527952093B8000895862F413208F06D
:1023C00040E26BE875E00E942E1210928A0580931D
:1023D000890508950C94DD1181E080936505609373
:1023E0008805109267051092660508950F93062FD1
:1023F00021E04091660568E675E0809188050E94BD
:1024000072121092670510926605109265050F9181
:10241000089561E00C94F61189E595E00C94B011F3
:102420001092180681E0809316061092150661E05E
:1024300082E10E94C92061E083E10E94C920E9EBAA
:10244000F0E080818E7F808380818D7F808388E42F
:102450008093B80085E48093BC000895413208F071
:102460003FC0909118069111FCCF91E0909318060F
:10247000209316062FEF2093AB051092F005240F42
:102480002093EF059093170690911706880F892BDC
:102490008093170680911506813041F4109215063D
:1024A000809117068093BB0085EC01C085EE809378
:1024B000BC00809118068130E1F38091F00584170B
:1024C00010F44091F00521EF35E0FB01D9018A2F8E
:1024D000821B841718F48D918193F9CF842F08956E
:1024E00080E008950F93413208F046C0909118069D
:1024F0009111FCCF92E090931806009316069FEF7F
:102500009093AB051092F0054093EF05FB0161EF4E
:1025100075E0DB019A2F961B941718F491919D9307
:10252000F9CF1092170690911706880F892B809388
:10253000170680911506813041F41092150680919E
:1025400017068093BB0085EC01C085EE8093BC002C
:10255000222321F0809118068230E1F38091AB05AF
:102560008F3F61F08091AB05803251F08091AB05D7
:10257000803341F483E007C081E005C080E003C000
:1025800082E001C084E00F910895613298F42091B7
:102590001806243089F46093CD05FC018FEC95E09A
:1025A000DC012A2F281B261718F421912D93F9CF2F
:1025B00080E0089581E0089582E0089585ED80939C
:1025C000BC008091BC0084FDFCCF109218060895D9
:1025D00085EC8093BC001092180608951F920F920C
:1025E0000FB60F9211242F933F934F935F936F93E6
:1025F0007F938F939F93AF93BF93EF93FF938091BC
:10260000B900887F803609F49CC068F5883209F4E7
:102610005BC090F4803109F454C038F4882309F485
:10262000F5C0883009F44DC0F5C0883109F44CC0BC
:10263000803209F45DC0EEC0803409F468C048F40B
:10264000803309F455C0883309F0E4C08093AB05AA
:10265000A8C0803509F44FC0883509F45DC08834BE
:1026600009F0D8C0D5C0883909F4C6C0A8F48837A5
:1026700009F467C038F4883609F463C0803709F478
:1026800060C0C8C0883809F4B7C0803909F45FC099
:10269000803809F0BFC05BC0803B09F485C038F4C6
:1026A000803A09F466C0883A09F47EC0B3C0803C21
:1026B00009F4A6C0883C09F4A3C0883B09F489C08A
:1026C000A9C08091170610C09091F0058091EF0588
:1026D000981770F5E091F00581E08E0F8093F0057A
:1026E000F0E0EF50FA4F80818093BB0085EC85C00D
:1026F0008093AB058DC0E091F00581E08E0F809353
:10270000F0058091BB00F0E0EF50FA4F808390918C
:10271000F0058091EF056DC0E091F00581E08E0F2E
:102720008093F0058091BB00F0E0EF50FA4F80837A
:102730008091160681116CC081E08093150684EAB1
:1027400060C083E0809318061092AC05CFCF8091D3
:10275000AC05803208F050C0E091AC0581E08E0FEE
:102760008093AC058091BB00F0E0E355FA4F808385
:10277000BDCF8091AC05803230F4E091AC05F0E043
:10278000E355FA4F10820E94DE126091AC0570E0B2
:10279000E0911106F09112068DEA95E009951092EC
:1027A000AC050E94E81236C084E0809318061092AF
:1027B000CE051092CD05E0911306F091140609950F
:1027C0008091CD05811105C081E08093CD051092E7
:1027D000CF05E091CE0581E08E0F8093CE05F0E02D
:1027E000E153FA4F80818093BB009091CE05809198
:1027F000CD05981708F47ACF85E88093BC000AC00D
:1028000085EC8093BC001092180604C01092AB05B2
:102810000E94DE12FF91EF91BF91AF919F918F9136
:102820007F916F915F914F913F912F910F900FBECC
:102830000F901F901895CF93DF93EC010E94EC1935
:10284000CE01DF91CF910C948919FC01653008F01D
:1028500064E0638F611104C08081828F0C949020AA
:10286000CF010C94F619FC01238D211104C0828D37
:102870000E94FF20089540E062E10C94DB1ACF93A0
:10288000DF93EC010E94EC19CE01DF91CF910C9403
:10289000F619653008F064E0FC01638F61110C9457
:1028A000F6190895DC015B962C91222331F0462F16
:1028B000440F64E10E94681AFC01CF0124E0969560
:1028C00087952A95E1F70895CF93DF93EC010E9455
:1028D000EC19CE01DF91CF910C948919FC0166238C
:1028E00021F0673018F066E001C061E0628F65306A
:1028F00021F48281838F818105C0663021F4848137
:10290000838F8381848FCF010C94F6190F931F93CB
:10291000CF93DF93EC018A8D8150843040F18B019D
:102920006F3F710519F014F00FEF10E001308FEFD9
:10293000180714F401E01FEF6FEF70E017FD09C0F6
:102940008C8D0E9408206FEF70E0601B710B8B8DE7
:1029500008C08B8D0E940820B8017727615071094B
:102960008C8DDF91CF911F910F910C940820DF91F6
:10297000CF911F910F9108950F93CF93DF9300D0C4
:1029800000D01F92CDB7DEB7FE01319625E0DF0102
:102990001D922A95E9F721E0298377FF2A8377FFA3
:1029A00003C07195619571096B8357FF02C021E0E7
:1029B0002C839A0157FF03C03195219531092D834E
:1029C000DC015A960C9125E0AF016AE00E94241ABE
:1029D0000F900F900F900F900F90DF91CF910F916C
:1029E0000895CF93DF93EC010E94EC19CE01DF91A3
:1029F000CF910C94F619662321F0653018F064E04D
:102A000001C061E0FC01628F0C94F619462F440F5F
:102A1000485FFC01228D6DEF0E94681ABC0180E0C6
:102A200090E00E94AE242AE037ED43E25CE30E948E
:102A300064250895CF93DF93EC010E94EC19CE0139
:102A4000DF91CF910C94F619662321F0653018F0D0
:102A500064E001C061E0FC01628F0C94F619462F1E
:102A6000FC01228D6DEF0C94DB1A0F93CF93DF9353
:102A700000D01F92CDB7DEB725E129836A834B834F
:102A8000FC01028D23E0AE014F5F5F4F6DEF0E94AE
:102A9000241A0F900F900F90DF91CF910F9108950E
:102AA000462F440F4E5FFC01228D6DEF0C94681A87
:102AB0000F93CF93DF9300D01F92CDB7DEB723E102
:102AC00029836A834B83FC01028D23E0AE014F5FB3
:102AD0005F4F6DEF0E94241A0F900F900F90DF91BF
:102AE000CF910F910895CF93DF93EC010E94EC19E1
:102AF000CE01DF91CF910C94F619662321F0653059
:102B000018F064E001C061E0FC01628F0C94F619DA
:102B1000611108C0FC01228D40E068E10E94DB1ACF
:102B200090E008952FEF260F253020F4462F440F14
:102B3000415006C06F3018F445E0460F01C043E134
:102B4000FC01228D68E10C94681A462FFC01228D4D
:102B500068E10C94681A0F93CF93DF9300D01F9213
:102B6000CDB7DEB7606169835A834B83FC01028D68
:102B700023E0AE014F5F5F4F68E10E94241A0F907F
:102B80000F900F90DF91CF910F910895CF93DF9326
:102B9000EC010E946C19CE01DF91CF910C94891940
:102BA000683068F410926B0010926C0081E090E045
:102BB000062E01C0880F0A94EAF780936D0088EF13
:102BC000860F863080F481E090E028EF260F022EF9
:102BD00001C0880F0A94EAF780936B0010926C0092
:102BE00010926D000CC06E3021F410926B0081E0E9
:102BF0001DC06F3021F410926B0082E017C060316D
:102C000021F410926B0084E011C0613121F4109224
:102C10006B0088E00BC0623121F410926B0080E100
:102C200005C0633139F410926B0080E280936C0030
:102C300010926D000895CF93DF93EC01888D811180
:102C400023C01AA21BA21CA21DA2F89487E08093A5
:102C500068006F89CE010E94D01578941D8A1E8A63
:102C60001A8E1B8E1C8E1D8E1E8E1F8E18A219A2F0
:102C70001AA21BA21CA21DA21EA21FA218A619A660
:102C80001AA61BA61CA61DA6DF91CF910895CF936F
:102C9000DF93EC01653008F064E0688F611110C0CB
:102CA0008D818F8B0E949020CE010E941B160E9466
:102CB0004E1F6EA77FA788AB99ABDF91CF91089588
:102CC000CE01DF91CF910C941B160F931F93CF93DE
:102CD000DF93EC01888D811128C10E945A1F0AA13F
:102CE0001BA12CA13DA1601B710B820B930B6EA34A
:102CF0007FA388A799A70E945A1F6AA37BA38CA3CE
:102D00009DA385E090E00E94A51F8F890E94FF206F
:102D10004EA15FA168A579A58A019B010E521D40B5
:102D2000210931090D3C18402105310518F50AA586
:102D30001BA52CA53DA50D551A41210931090739BF
:102D4000114121053105B0F4811114C01D8A81E0C3
:102D50008E8B1A8E1B8E1C8E1D8E1EA21FA218A675
:102D600019A64EA15FA168A579A54AA75BA76CA784
:102D70007DA7DBC08A019B01075916402109310953
:102D80000736144021053105D8F40AA51BA52CA54A
:102D90003DA50D551A412109310907391141210578
:102DA000310570F481110CC01D8A81E08E8B4E8D2F
:102DB0005F8D68A179A14A8F5B8F6C8F7D8FCDCF9E
:102DC0008A019B01035A1140210931090B3111403D
:102DD00021053105A0F40AA51BA52CA53DA5035A84
:102DE0001140210931090B3111402105310538F419
:102DF000811105C09E89913011F48D8936C08A01F8
:102E00009B010B5E1440210931090B34134021054D
:102E1000310570F50AA51BA52CA53DA5035A114047
:102E2000210931090B3111402105310508F58111C6
:102E30001FC09E899130E1F48D8901E010E020E00F
:102E400030E0082E04C0000F111F221F331F0A9408
:102E5000D2F74A8D5B8D6C8D7D8D402B512B622B73
:102E6000732B4A8F5B8F6C8F7D8F8F5F8D8B75CFB0
:102E70008A019B01065B1547210931090D371E4464
:102E80002105310528F50AA51BA52CA53DA5035A4A
:102E90001140210931090B31114021053105C0F4E0
:102EA000811116C09E89913099F48D89803229F064
:102EB0001A8E1B8E1C8E1D8E08C04A8D5B8D6C8DEC
:102EC0007D8D4E8F5F8F68A379A31E8A1D8A45CFA3
:102ED00046535341614071094D37574B61057105A8
:102EE00008F03FCF4AA55BA56CA57DA5435A51408C
:102EF000610971094B3151406105710508F031CF0D
:102F000081112FCF8E89813009F02BCF1E8A1D8A27
:102F10001EA21FA218A619A64E8D5F8D68A179A1C9
:102F20004A8F5B8F6C8F7D8F1CCFDF91CF911F916C
:102F30000F9108950F931F93CF93DF93EC010E949D
:102F40004E1F0EA51FA528A939A90E5C1F4F2F4F94
:102F50003F4F061717072807390700F50E944E1F35
:102F60006EA77FA788AB99AB888D811117C00E948F
:102F70005A1F0AA11BA12CA13DA1601B710B820B42
:102F8000930B61347D408340910540F01A8E1B8E77
:102F90001C8E1D8E1E8E1F8E18A219A2DF91CF913E
:102FA0001F910F910895FC01428D538D648D758D95
:102FB000472F552766277727433E09F45CC040F525
:102FC000493B09F445C0A0F44D3A09F458C040F417
:102FD000413A09F44EC0453A09F055C082E139C082
:102FE000453B09F44EC0483B09F04DC083E031C079
:102FF0004C3B89F138F44A3B49F14B3B09F043C063
:1030000084E027C04D3BC9F14F3BE9F585E021C085
:10301000433F69F178F4493E31F130F4463E29F1FD
:10302000473E89F58EE015C04A3EC9F0423F59F54A
:103030008CE00FC0483F89F030F4463F91F0473FA5
:1030400011F580E106C04F3FF8F01DC081E001C0DE
:1030500082E0818F19C086E0FCCF87E0FACF88E05C
:10306000F8CF89E0F6CF8AE0F4CF8BE0F2CF8DE0A5
:10307000F0CF8FE0EECF81E1ECCF83E1EACF84E1C6
:10308000E8CF85E1E6CF118E818D0895FC01808D1A
:103090000895CF93DF93EC010E94EC19FE017B961B
:1030A00080E4DF011D928A95E9F7CE01DF91CF918F
:1030B0000C94F6190F931F93CF93DF931F92CDB704
:1030C000DEB78C0169830E94F6196981662321F0BD
:1030D000653018F064E001C061E0F801628F0F9084
:1030E000DF91CF911F910F9108950F93CF93DF93AD
:1030F00000D000D0CDB7DEB721E029836A837B837F
:103100004C83FC01028D24E0AE014F5F5F4F69E20A
:103110000E94241A0F900F900F900F90DF91CF9183
:103120000F9108950F931F93CF93DF93CDB7DEB721
:1031300062970FB6F894DEBF0FBECDBF142FAE015D
:103140004F5F5F4F22E1FA0111922A95E9F724E0DF
:103150002983FB01DE0112969E012E5E3F4F619195
:103160006D93A217B307D9F71A8BFC01028D22E1E8
:1031700069E20E94241A64E070E080E090E00E941E
:103180007D1F62960FB6F894DEBF0FBECDBFDF91F4
:10319000CF911F910F910895CF92DF92FF920F93DD
:1031A0001F93CF93DF9300D01F92CDB7DEB76C0192
:1031B000842F90E049836A837B830E944426F82E03
:1031C000192F6A81962F4F2D512FE62F7B81F72FD4
:1031D00029818E2F891B821728F48191DA018D9322
:1031E000AD01F7CFF601028D4F2D512F69E2C601D7
:1031F0000E94241A8F2D912F0F900F900F90DF9126
:10320000CF911F910F91FF90DF90CF900C94DC260F
:10321000CF93DF93EC010E94EC19CE01DF91CF91A7
:103220000C94F619653008F064E0FC01638F6111BD
:1032300003C024E1228F08950C94F619FC01238D1C
:10324000211103C0828D0C94EB1F43E06EEF0C94B0
:10325000681ACF93DF93EC010E94EC19CE01DF9145
:10326000CF910C94F619662321F0653018F064E0D4
:1032700001C061E0FC01628F0C94F619462FFC013D
:10328000228D61E10C94DB1A462F6F3008F04EE07E
:10329000FC01228D61E10C94681A0F93CF93DF93A8
:1032A00000D01F92CDB7DEB7440F551F440F551FF6
:1032B000606169835A834B83FC01028D23E0AE0178
:1032C0004F5F5F4F61E10E94241A0F900F900F90A3
:1032D000DF91CF910F9108950895FC01838994891E
:1032E00008951F93CF93DF93C62FD0E0CE010196B0
:1032F0000E949827182FCE010E949827212F30E096
:10330000322F2227A901482BCA01DF91CF911F91AB
:103310000895CF93DF93EC0160E00E9471199C8BBC
:103320008B8B803D9740B8F482E08D8383E08E8361
:1033300084E0898785E08C8386E08B8787E0888BB3
:1033400088E08F8789E089838AE08A838BE08B839A
:103350008CE08C8716C082E08D8383E0898384E0D3
:10336000898785E08B8386E08C8387E0888B88E083
:103370008F8789E08B878AE08C878BE08A838CE05B
:103380008E838DE08A878EE0898B8FE08A8B80E147
:103390008D8781E18887888384E18F838FEF8E8793
:1033A000DF91CF9108950F931F93CF93DF931F92D7
:1033B000CDB7DEB7062F10E0642FC80159830E94F5
:1033C000A0275981652FC80101960F90DF91CF91F9
:1033D0001F910F910C94A027CF93DF93EC010E94D3
:1033E0006C19CE01DF91CF910C948919EF92FF9265
:1033F0000F931F93CF93DF937C0189E595E00E94A3
:10340000C01140E85AE166E070E089E595E00E946D
:10341000CA11C0E0D0E087010C0F1D1FF80187859D
:10342000868B61E00E94902061E0F80186890E940D
:10343000C9202196C430D10571F7DF91CF911F913A
:103440000F91FF90EF900895CF92DF92EF92FF924D
:103450000F931F93CF93DF9300D0CDB7DEB7E62E47
:10346000F22E800F911D8C0160E0FC01858949835B
:103470005A830E94C92084E690E00E94A51F6E2D09
:1034800089E595E00E94EC114981E42EC42E5A8111
:10349000D52E8C2D8E198F1540F4F60161916F0198
:1034A00089E595E00E948111F4CF89E595E00E94BD
:1034B000091261E0F80185890F900F90DF91CF919B
:1034C0001F910F91FF90EF90DF90CF900C94C92047
:1034D000CF92DF92EF92FF920F931F93CF93DF93E0
:1034E000CDB7DEB72D970FB6F894DEBF0FBECDBFB8
:1034F000D62E8E010F5F1F4F3CE0F80111923A95D6
:10350000E9F77C01E20EF11C60E0F70185894D8747
:103510000E94C92084E690E00E94A51F6D2D89E5D8
:1035200095E00E94EC114D85642F89E595E00E949D
:10353000811189E595E00E94091284E690E00E94DD
:10354000A51F6D2D70E021E030E042E050E089E5FC
:1035500095E00E94EA11D12C89E595E00E9429119D
:10356000892B69F0CC24C394CD0C89E595E00E94A9
:103570003111F801ED0DF11D8083DC2CEDCF898137
:103580000A8110E0102F0027080F111D61E0F701DC
:1035900085890E94C920C8012D960FB6F894DEBF18
:1035A0000FBECDBFDF91CF911F910F91FF90EF9094
:1035B000DF90CF900895EF92FF921F93CF93DF9308
:1035C0001F92CDB7DEB7162F7C01E20EF11C60E032
:1035D000F701858949830E94C92084E690E00E9412
:1035E000A51F612F89E595E00E94EC114981642FA8
:1035F00089E595E00E94811189E595E00E94091214
:1036000084E690E00E94A51F612F70E021E030E089
:1036100041E050E089E595E00E94EA1110E089E57B
:1036200095E00E942911892B31F089E595E00E94EF
:103630003111182FF4CF61E0F70185890E94C9206C
:10364000812F0F90DF91CF911F91FF90EF90089500
:10365000CF93DF93EC010E94EC19CE01DF91CF9163
:103660000C94F619CF93DF93EC010E946C19CE01F4
:10367000DF91CF910C948919CF93DF93EC016530E2
:1036800008F064E06F8B61110DC088858E8B998581
:103690009D8B61E00E94902061E08D89DF91CF9148
:1036A0000C949020DF91CF9108951F93CF93DF93D7
:1036B000EC01162F8F89811124C061E08E890E9450
:1036C000C92084E690E00E94A51F60E08E890E94D8
:1036D000C92084E690E00E94A51F112391F061E0CB
:1036E0008D890E94C92084E690E00E94A51F60E0B9
:1036F0008D890E94C92084E690E00E94A51F115088
:10370000ECCFDF91CF911F910895CF93DF93EC0120
:103710000E94EC19CE01DF91CF910C94F61966232B
:1037200021F0653018F064E001C061E0FC01638FB6
:10373000158E148E0C94F619CF93DF93EC012B8D1C
:1037400040E064E00E94681A813024E0920770F043
:103750008E8D8F5F8E8F2C8D3D8D213094E03907BB
:1037600048F48A3050F084E18E8F04C01E8E9D8F05
:103770008C8F04C080E094E001C0C901DF91CF913B
:103780000895CF93DF93EC010E94EC19CE01DF91F5
:10379000CF910C948919CF93DF93EC018BA1811108
:1037A00025C0262F30E03B8F2A8F23E0629FC00187
:1037B00011240E9444269D8F8C8F892B21F484E74D
:1037C00091E00E946B2780E090E04A8D5B8D9A012A
:1037D000220F331F240F351F8217930738F4EC8D07
:1037E000FD8DE80FF91F10820196EFCFDF91CF9189
:1037F0000895CF93DF93EC01653008F064E06BA38C
:1038000061111EC08A85282F30E0F901EE55FF4F67
:10381000E491EAA3F901EA54FF4FE491F0E0EE0FDE
:10382000FF1FEC52FF4F259134913F8F2E8F61E0A7
:103830000E94902065E0CE01DF91CF910C94CB1BCC
:10384000CE01DF91CF910C94F6190F93FC0183A167
:1038500081111CC0A62FB0E0828D938DA817B907E7
:10386000A8F4862F880F860F90E0A48DB58DA80F41
:10387000B91F2C93A48DB58DA80FB91F11964C9329
:10388000048CF58DE02DE80FF91F02830F91089548
:10389000BF92CF92DF92EF92FF920F931F93CF933D
:1038A000DF93EC01B62EC42ED22E102F611112C060
:1038B000E12CF12C8A8D9B8DE816F90678F4012F06
:1038C0002D2D4C2D6E2DCE010E94251C8FEFE81A58
:1038D000F80AF0CF6FEF6B0D0E94251C8BA1882397
:1038E00041F08B2D853008F084E08DA3CEA2DFA2BD
:1038F00018A7DF91CF911F910F91FF90EF90DF906C
:10390000CF90BF900895FC0183A108950F931F935A
:10391000D8013FB7F8949C91822F80958923292B59
:10392000FB01460F571FE417F50781F0919168E0FE
:103930002C9300C097FF8C93990F00C000C000C06B
:1039400008F48C9300C06A9599F7EDCF3FBF1F91A3
:103950000F9108950F931F9328E0FC0124A303A166
:1039600001110FC0068D178D228D338DA901440FD3
:10397000551F420F531F648D758D22A10E94861C16
:1039800007C0AC014C5D5F4F25E06EEF0E94241A2A
:103990001F910F910895CF93DF93EC018C8D9D8D36
:1039A0000E94DC261D8E1C8EDF91CF910895CF934F
:1039B000DF93EC010E94EC19CE01DF91CF910C94C2
:1039C000F6190F931F93CF93DF931F92CDB7DEB7F6
:1039D0008C0169830E94F6196981662321F06530A4
:1039E00018F064E001C061E0F801628F0F90DF9190
:1039F000CF911F910F9108950F931F93CF93DF9352
:103A000000D000D01F92CDB7DEB7FE01319625E081
:103A1000DF011D922A95E9F78A019B01009319069F
:103A200010931A0620931B0630931C0621E029836D
:103A30004A8320911A062B8320911B062C83209108
:103A40001C062D83DC015A960C9125E0AF0169E03C
:103A50000E94241A0F900F900F900F900F90DF91FB
:103A6000CF911F910F910895CF93DF93EC010E94A6
:103A7000EC19CE014E960E94F10FCE010E948919D9
:103A8000CE01DF91CF910C94F619CF93DF93EC0127
:103A9000653008F064E06B8F411101C041E04C8F4C
:103AA00061111EC0413011F48B8501C08C858A8F55
:103AB000CE010E946D19803D974050F461E08A8DDF
:103AC0000E94902060E08A8DDF91CF910C94C920F4
:103AD0006A8D70E0CE014E96DF91CF910C948B10E1
:103AE0004D8FDF91CF9108958F929F92AF92BF92A9
:103AF000CF92DF92EF92FF920F931F93CF93DF93BA
:103B000000D000D01F92CDB7DEB74C01FC01838DF1
:103B1000811136C0C4016D830E946D196D8170E002
:103B2000803D974040F580E090E01F921F9229E091
:103B30002F9324EC2F9344EFA42EBB24B394C12CD9
:103B4000D12C14EBE12EF12C00E010E020E030E06D
:103B5000A9010E9464236B017C0161E0F401828D64
:103B60000E94C920C6010E94A51F60E0F401828D59
:103B70000E94C92033C0C4014E960E94C41032C0B6
:103B800019821A821B821C8270E080E090E01F92F2
:103B90001F9229E02F9324EC2F9324EFA22EBB2415
:103BA000B394C12CD12C1FEAE12EF12C00E010E0DF
:103BB00025E030E040E050E00E9464238BE0898300
:103BC000F401858D8A837B836C83038D24E0AE01B1
:103BD0004F5F5F4F6DEFC4010E94241A0F900F904A
:103BE0000F900F900F900F900F900F900F90DF910C
:103BF000CF911F910F91FF90EF90DF90CF90BF90EA
:103C0000AF909F908F900895CF93DF93EC010E9427
:103C1000EC19CE01DF91CF910C948919FC0165302C
:103C200008F064E0638F611102C08585828F08957A
:103C3000FC01238D211103C0828D0C94EB1F80E0C9
:103C400090E00895CF93DF93EC010E94EC19CE0130
:103C5000DF91CF910C94F619662321F0653018F0AE
:103C600064E001C061E0FC01638F0C94F619CF920F
:103C7000DF92EF92FF92CF93DF93EC012B8D41E027
:103C800061E00E94681ABC0197FF07C06F5F7F4721
:103C900080E090E00E94AE2410C080E090E00E949E
:103CA000AE2420E030E048E052E40E94642520E0A9
:103CB00030E04AEF54E40E9415246B017C0120E0BF
:103CC00030E046E953E40E946025181654F020E0E5
:103CD00030E040E85FE3C701B6010E94112487FF8E
:103CE0007DC02B8D41E061E0CE010E94681ABC01CD
:103CF00097FF07C06F5F7F4780E090E00E94AE248F
:103D000010C080E090E00E94AE2420E030E048E067
:103D100052E40E94642520E030E04AEF54E40E941F
:103D200015246B017C0120E030E046E953E40E9459
:103D30006025181654F020E030E040E85FE3C7014A
:103D4000B6010E94112487FF56C064E170E080E054
:103D500090E00E947D1F82E08A8F8A8D9FEF980FEE
:103D60009A8F882309F447C02B8D41E061E0CE0192
:103D70000E94681ABC0197FF07C06F5F7F4780E011
:103D800090E00E94AE2410C080E090E00E94AE243B
:103D900020E030E048E052E40E94642520E030E07A
:103DA0004AEF54E40E9415246B017C0120E030E0CE
:103DB00046E953E40E941124181654F020E030E044
:103DC00040E85FE3C701B6010E94602587FF0CC091
:103DD0008A8D813011F62CE291E00EC064E170E032
:103DE00080E090E00E947D1FC701B6010E948224FE
:103DF000262F972F01C001C0822FDF91CF91FF9016
:103E0000EF90DF90CF9008951F920F920FB60F9210
:103E100011242F933F938F939F93AF93BF938091E0
:103E20001E0690911F06A0912006B09121063091A8
:103E30001D0623E0230F2D3720F40196A11DB11D8F
:103E400005C026E8230F0296A11DB11D20931D0673
:103E500080931E0690931F06A0932006B093210620
:103E60008091220690912306A0912406B091250608
:103E70000196A11DB11D8093220690932306A09365
:103E80002406B0932506BF91AF919F918F913F91EA
:103E90002F910F900FBE0F901F9018952FB7F89489
:103EA00060911E0670911F06809120069091210658
:103EB0002FBF08953FB7F894809122069091230672
:103EC000A0912406B091250626B5A89B05C02F3FDA
:103ED00019F00196A11DB11D3FBF6627782F892FCC
:103EE0009A2F620F711D811D911D42E0660F771F91
:103EF000881F991F4A95D1F70895CF92DF92EF92CC
:103F0000FF92CF93DF936B017C010E945A1FEB015C
:103F1000C114D104E104F10489F00E94AB230E9492
:103F20005A1F6C1B7D0B683E734090F381E0C81AEA
:103F3000D108E108F108C851DC4FEACFDF91CF91F9
:103F4000FF90EF90DF90CF9008958230910538F088
:103F5000880F991F880F991F05970197F1F708950A
:103F6000789484B5826084BD84B5816084BD85B554
:103F7000826085BD85B5816085BDEEE6F0E080811B
:103F800081608083E1E8F0E010828081826080833C
:103F9000808181608083E0E8F0E0808181608083BF
:103FA000E1EBF0E0808184608083E0EBF0E08081F1
:103FB00081608083EAE7F0E0808184608083808193
:103FC000826080838081816080838081806880833B
:103FD0001092C10008958E3008F08E5087702091A5
:103FE000630190E4299F90011124822B80937C002F
:103FF00080917A00806480937A0080917A0086FDB7
:10400000FCCF809178002091790090E0922B089568
:104010001F93CF93DF93182FEB0161E00E94902054
:10402000209711F460E004C0CF3FD10539F461E07E
:10403000812FDF91CF911F910C94C920E12FF0E0E7
:10404000E257FF4FE491E330F9F048F4E130B9F082
:10405000E230A1F584B5806284BDC8BD34C0E730CC
:10406000E9F0E83019F1E43049F580918000806290
:1040700080938000D0938B00C0938A0024C084B5C5
:10408000806884BDC7BD1FC0809180008068809318
:104090008000D0938900C093880015C08091B00043
:1040A00080688093B000C093B3000DC08091B000D1
:1040B00080628093B000C093B40005C0C038D105C1
:1040C0000CF0B5CFAFCFDF91CF911F910895833022
:1040D00081F028F4813099F08230A1F00895873082
:1040E000A9F08830B9F08430D1F4809180008F7DC0
:1040F00003C0809180008F7780938000089584B5FD
:104100008F7702C084B58F7D84BD08958091B00003
:104110008F7703C08091B0008F7D8093B0000895A9
:10412000CF93DF9390E0FC01EE55FF4F2491FC010B
:10413000EA54FF4F8491882349F190E0880F991F3A
:10414000FC01E252FF4FA591B4918C529F4FFC01AC
:10415000C591D4919FB7611108C0F8948C912095B6
:1041600082238C93888182230AC0623051F4F894B0
:104170008C91322F309583238C938881822B888376
:1041800004C0F8948C91822B8C939FBFDF91CF91C8
:1041900008950F931F93CF93DF931F92CDB7DEB790
:1041A000282F30E0F901E257FF4F8491F901EE55D5
:1041B000FF4F1491F901EA54FF4F04910023C9F015
:1041C000882321F069830E9467206981E02FF0E055
:1041D000EE0FFF1FEC52FF4FA591B4919FB7F894DB
:1041E0008C91611103C01095812301C0812B8C93A8
:1041F0009FBF0F90DF91CF911F910F910895CF93A3
:10420000DF93282F30E0F901E257FF4F8491F90145
:10421000EE55FF4FD491F901EA54FF4FC491CC23DE
:1042200091F081110E946720EC2FF0E0EE0FFF1F4C
:10423000E653FF4FA591B4912C912D2381E090E09E
:1042400021F480E002C080E090E0DF91CF910895FA
:10425000FC01818D228D90E0805C9F4F821B910933
:104260008F7399270895FC01918D828D981731F0F5
:10427000828DE80FF11D858D90E008958FEF9FEFFF
:104280000895FC01918D828D981761F0828DDF0178
:10429000A80FB11D5D968C91928D9F5F9F73928F39
:1042A00090E008958FEF9FEF089585EC92E2892BBF
:1042B00049F080E090E0892B29F00E94C52281110D
:1042C0000C9400000895FC01848DDF01A80FB11D3E
:1042D000A35ABF4F2C91848D90E001968F7399273C
:1042E000848FA689B7892C93A089B1898C91806429
:1042F0008C93938D848D981306C00288F389E02DEA
:1043000080818F7D80830895CF93DF93EC01888D2A
:104310008823C9F0EA89FB89808185FD05C0A889C9
:10432000B9898C9186FD0FC00FB607FCF5CF80814F
:1043300085FFF2CFA889B9898C9185FFEDCFCE0199
:104340000E946321E7CFDF91CF910895CF92DF9252
:10435000FF920F931F93CF93DF931F92CDB7DEB7DA
:104360006C0181E0D60158968C9358975B969C918E
:104370005B975C968C915C97981307C05096ED9173
:10438000FC915197808185FD2EC0F601038D10E0D0
:104390000F5F1F4F0F731127F02EF601848DF81257
:1043A00011C00FB607FCF9CFD6015096ED91FC91E4
:1043B0005197808185FFF1CFC60169830E946321F7
:1043C0006981EBCF838DE80FF11DE35AFF4F6083C6
:1043D000D6015B960C935B975296ED91FC915397A7
:1043E000808180620CC0D6015696ED91FC91579762
:1043F00060835096ED91FC91519780818064808319
:1044000081E090E00F90DF91CF911F910F91FF908D
:10441000DF90CF900895BF92CF92DF92EF92FF92FC
:10442000CF93DF93EC016A017B01B22EE889F98911
:1044300082E08083411581EE580761057105A1F086
:1044400060E079E08DE390E0A70196010E94E3250A
:1044500021503109410951095695479537952795BE
:10446000211580E1380798F0E889F989108260E821
:1044700074E88EE190E0A70196010E94E3252150A7
:104480003109410951095695479537952795EC858E
:10449000FD853083EE85FF852083188EEC89FD89AC
:1044A000B082EA89FB89808180618083EA89FB8907
:1044B000808188608083EA89FB898081806880832D
:1044C000EA89FB8980818F7D8083DF91CF91FF9086
:1044D000EF90DF90CF90BF9008951F920F920FB68C
:1044E0000F9211242F938F939F93EF93FF93E0915B
:1044F0003606F09137068081E0913C06F0913D064A
:1045000082FD12C0908180913F068F5F8F73209152
:104510004006821751F0E0913F06F0E0EA5DF94F66
:10452000958F80933F0601C08081FF91EF919F910D
:104530008F912F910F900FBE0F901F9018951F9283
:104540000F920FB60F9211242F933F934F935F93C7
:104550006F937F938F939F93AF93BF93EF93FF934B
:1045600086E296E00E946321FF91EF91BF91AF91A7
:104570009F918F917F916F915F914F913F912F917B
:104580000F900FBE0F901F90189586E296E00E9444
:10459000282121E0892B09F420E0822F0895109230
:1045A00029061092280688EE93E0A0E0B0E0809300
:1045B0002A0690932B06A0932C06B0932D0684E92F
:1045C00091E0909327068093260685EC90E09093E7
:1045D00033068093320684EC90E090933506809306
:1045E000340680EC90E0909337068093360681EC99
:1045F00090E0909339068093380682EC90E0909397
:104600003B0680933A0686EC90E090933D068093BB
:104610003C0610923F0610924006109241061092FE
:104620004206089508950E94B01F0E9412230E941E
:10463000DD04C5E5D1E20E949F0C2097E1F30E94C2
:104640005521F9CFCF92DF92EF92FF920F931F93F4
:10465000CF93DF936C017A01EB01E60EF71E00E0C9
:1046600010E0CE15DF0561F06991D601ED91FC9166
:104670000190F081E02DC6010995080F191FF1CFB7
:10468000C801DF91CF911F910F91FF90EF90DF90C4
:10469000CF9008956115710581F0DB010D90002028
:1046A000E9F7AD0141505109461B570BDC01ED9173
:1046B000FC910280F381E02D099480E090E0089560
:1046C00060EA71E00C944A234F925F926F927F925E
:1046D000AF92BF92CF92DF92EF92FF920F931F9310
:1046E000CF93DF93CDB7DEB729013A01621B730B7D
:1046F000840B950B29893A894B895C892A193B09D6
:104700004C095D09298B3A8B4B8B5C8B9B01AC016F
:1047100069897A898B899C890E94C725E418F508E4
:1047200006091709A80197010E9405262A0D3B1DBD
:104730004C1D5D1DCA01B901DF91CF911F910F91F1
:10474000FF90EF90DF90CF90BF90AF907F906F90F1
:104750005F904F90089508955058BB27AA270ED018
:1047600075C166D130F06BD120F031F49F3F11F468
:104770001EF45BC10EF4E095E7FB51C1E92F77D140
:1047800080F3BA17620773078407950718F071F46E
:104790009EF58FC10EF4E0950B2EBA2FA02D0B01C4
:1047A000B90190010C01CA01A0011124FF27591B76
:1047B00099F0593F50F4503E68F11A16F040A22F7C
:1047C000232F342F4427585FF3CF469537952795ED
:1047D000A795F0405395C9F77EF41F16BA0B620BEC
:1047E000730B840BBAF09150A1F0FF0FBB1F661F33
:1047F000771F881FC2F70EC0BA0F621F731F841F76
:1048000048F4879577956795B795F7959E3F08F09B
:10481000B3CF9395880F08F09927EE0F979587955A
:104820000895D9D008F481E008950CD00FC107D1C4
:1048300040F0FED030F021F45F3F19F0F0C051118C
:1048400039C1F3C014D198F39923C9F35523B1F3B7
:10485000951B550BBB27AA2762177307840738F0EF
:104860009F5F5F4F220F331F441FAA1FA9F333D04E
:104870000E2E3AF0E0E830D091505040E695001C02
:10488000CAF729D0FE2F27D0660F771F881FBB1FBE
:10489000261737074807AB07B0E809F0BB0B802D98
:1048A000BF01FF2793585F4F2AF09E3F510568F0E4
:1048B000B6C000C15F3FECF3983EDCF38695779578
:1048C0006795B795F7959F5FC9F7880F911D9695E6
:1048D000879597F90895E1E0660F771F881FBB1F42
:1048E000621773078407BA0720F0621B730B840BEF
:1048F000BA0BEE1F88F7E095089504D06894B111C3
:10490000D9C00895BCD088F09F5790F0B92F99274F
:10491000B751A0F0D1F0660F771F881F991F1AF0CA
:10492000BA95C9F712C0B13081F0C3D0B1E0089593
:10493000C0C0672F782F8827B85F39F0B93FCCF314
:10494000869577956795B395D9F73EF490958095C0
:10495000709561957F4F8F4F9F4F0895E89409C0E0
:1049600097FB3EF490958095709561957F4F8F4FA2
:104970009F4F9923A9F0F92F96E9BB279395F695B8
:10498000879577956795B795F111F8CFFAF4BB0F36
:1049900011F460FF1BC06F5F7F4F8F4F9F4F16C09A
:1049A000882311F096E911C0772321F09EE8872F24
:1049B000762F05C0662371F096E8862F70E060E0E0
:1049C0002AF09A95660F771F881FDAF7880F969559
:1049D000879597F90895990F0008550FAA0BE0E8FD
:1049E000FEEF16161706E807F907C0F012161306B1
:1049F000E407F50798F0621B730B840B950B39F4F1
:104A00000A2661F0232B242B252B21F408950A2656
:104A100009F4A140A6958FEF811D811D089597F996
:104A20009F6780E870E060E008959FEF80EC089554
:104A300000240A941616170618060906089500247D
:104A40000A9412161306140605060895092E0394F7
:104A5000000C11F4882352F0BB0F40F4BF2B11F46B
:104A600060FF04C06F5F7F4F8F4F9F4F089557FDCA
:104A70009058440F551F59F05F3F71F04795880FCC
:104A800097FB991F61F09F3F79F087950895121663
:104A900013061406551FF2CF4695F1DF08C016160F
:104AA00017061806991FF1CF8695710561050894C0
:104AB0000895E894BB2766277727CB0197F90895D7
:104AC0008ADF08F48FEF08950BD0C0CFB1DF28F054
:104AD000B6DF18F0952309F0A2CFA7CF1124EACFB3
:104AE000C6DFA0F3959FD1F3950F50E0551F629F4D
:104AF000F001729FBB27F00DB11D639FAA27F00D37
:104B0000B11DAA1F649F6627B00DA11D661F829F5D
:104B10002227B00DA11D621F739FB00DA11D621F42
:104B2000839FA00D611D221F749F3327A00D611D5F
:104B3000231F849F600D211D822F762F6A2F112441
:104B40009F5750408AF0E1F088234AF0EE0FFF1F94
:104B5000BB1F661F771F881F91505040A9F79E3FCB
:104B6000510570F05CCFA6CF5F3FECF3983EDCF3CD
:104B7000869577956795B795F795E7959F5FC1F708
:104B8000FE2B880F911D9695879597F90895DB0167
:104B90008F939F930E942A26BF91AF91A29F800D71
:104BA000911DA39F900DB29F900D11240895991B04
:104BB00079E004C0991F961708F0961B881F7A9514
:104BC000C9F780950895A1E21A2EAA1BBB1BFD010F
:104BD0000DC0AA1FBB1FEE1FFF1FA217B307E407DC
:104BE000F50720F0A21BB30BE40BF50B661F771F34
:104BF000881F991F1A9469F7609570958095909514
:104C00009B01AC01BD01CF010895052E97FB1EF459
:104C100000940E941C2657FD07D00E94E32507FC44
:104C200003D04EF40C941C26509540953095219558
:104C30003F4F4F4F5F4F08959095809570956195C8
:104C40007F4F8F4F9F4F0895EE0FFF1F0590F491F8
:104C5000E02D09940E943526A59F900DB49F900DDC
:104C6000A49F800D911D11240895A29FB001B39FB0
:104C7000C001A39F700D811D1124911DB29F700D65
:104C8000811D1124911D0895CF93DF9382309105EA
:104C900010F482E090E0E091C506F091C60620E0B5
:104CA00030E0A0E0B0E0309739F140815181481701
:104CB0005907B8F04817590771F48281938110970A
:104CC00029F013969C938E9312972CC09093C6064E
:104CD0008093C50627C02115310531F042175307CF
:104CE00018F0A901DB0101C0EF019A01BD01DF014C
:104CF0000280F381E02DD7CF21153105F9F0281B73
:104D0000390B2430310580F48A819B81611571054E
:104D100021F0FB019383828304C09093C6068093A5
:104D2000C506FE01329644C0FE01E20FF31F8193D7
:104D3000919322503109398328833AC02091C306C8
:104D40003091C406232B41F42091020130910301DC
:104D50003093C4062093C3062091000130910101D5
:104D60002115310541F42DB73EB740910401509112
:104D70000501241B350BE091C306F091C406E21730
:104D8000F307A0F42E1B3F0B2817390778F0AC016E
:104D90004E5F5F4F2417350748F04E0F5F1F50934B
:104DA000C4064093C3068193919302C0E0E0F0E013
:104DB000CF01DF91CF910895CF93DF93009709F44E
:104DC00087C0FC01329713821282C091C506D09130
:104DD000C606209781F420813181280F391F8091E8
:104DE000C3069091C4068217930779F5F093C40621
:104DF000E093C3066DC0DE0120E030E0AE17BF07D0
:104E000050F412964D915C9113979D0141155105F7
:104E100009F1DA01F3CFB383A28340815181840F7A
:104E2000951F8A179B0771F48D919C911197840FA0
:104E3000951F02969183808312968D919C91139772
:104E4000938382832115310529F4F093C606E093FC
:104E5000C5063EC0D9011396FC93EE9312974D916F
:104E60005D91A40FB51FEA17FB0779F4808191814A
:104E7000840F951F0296D90111969C938E9382817F
:104E8000938113969C938E931297E0E0F0E08A81D1
:104E90009B81009719F0FE01EC01F9CFCE0102963B
:104EA00028813981820F931F2091C3063091C40657
:104EB0002817390769F4309729F41092C606109222
:104EC000C50602C013821282D093C406C093C306E3
:104ED000DF91CF9108950F931F93CF93DF93E091CC
:104EE000C906F091CA06238121FF1BC0EC0100E036
:104EF00010E089916091C9067091CA06DB0118968D
:104F0000ED91FC911997882331F00995892B89F34C
:104F10000FEF1FEFEECF8AE00995892B11F4C8013E
:104F200002C08FEF9FEFDF91CF911F910F910895F6
:104F3000F999FECF92BD81BDF89A992780B5089561
:104F4000262FF999FECF1FBA92BD81BD20BD0FB6A5
:104F5000F894FA9AF99A0FBE0196089510E0CEEEF1
:104F6000D0E004C0FE010E9426262296C03FD10751
:064F7000C9F7F894FFCF21
:104F76000000CD0680000100000001007E201C20FC
:104F86007E00427E42003C42423C000000204040FF
:104F960048240404244840402000000000204040EB
:104FA6004824040424484040200000003844447C3F
:104FB6007C3800003844447C7C380000387C7C44D3
:104FC60044380000387C7C44443800020564FE0105
:104FD60000D7070100000000811154112911311179
:104FE600441153115468657265206973206E6F749D
:104FF60020656E6F756768207370616365210D00AB
:1050060000000000A62122232821412133218421EA
:105016000D0A006E616E00696E66006F7666002E80
:02502600000088
:00000001FF
